:020000040800F2
:10000000FF4F002099160008E1160008E1160008CD
:10001000E1160008E1160008E116000800000000E3
:10002000000000000000000000000000E1160008D1
:10003000E116000800000000E11600089D0100081C
:10004000E1160008E1160008E1160008E1160008B4
:10005000E1160008E1160008E1160008E1160008A4
:10006000E1160008E1160008E1160008E116000894
:10007000E1160008E1160008E1160008E116000884
:10008000E1160008E116000891050008E1160008D5
:10009000E1160008E1160008E1160008E116000864
:1000A00021070008E1160008E1160008E116000823
:1000B000E1160008E1160008E1160008E116000844
:1000C000E1160008E1160008E1160008E116000834
:1000D000E116000881070008E1160008E116000893
:1000E000E1160008E1160008E11600080000000013
:1000F0000000000000000000000000000000000000
:0C01000000000000000000005FF808F1A3
:100110000348044B834202D0034B03B11847704796
:100120000400002004000020000000000548064BE9
:100130001B1AD90F01EBA301491002D0034B03B1E5
:100140001847704704000020040000200000000051
:1001500010B5064C237843B9FFF7DAFF044B13B10F
:100160000448AFF300800123237010BD0800002075
:10017000000000003C17000808B5054B1BB10549FD
:100180000548AFF30080BDE80840FFF7CFBF00BFD0
:10019000000000000C0000203C170008024A136811
:1001A00001331360704700BF240000202DE9F8439D
:1001B00000F058F800F0A6F800F0C2FA00F04EFA8D
:1001C00000F086F901F016F81F4B204E1B68A6FBC5
:1001D00003239B09013BB3F1807F2CD24FF0E02237
:1001E0000721F02500241A48536180F823509461B8
:1001F000116100F0B7F9174800F0E6FA052500F0A4
:10020000EBFB4FF4FA792246DFF84C80134FA6FB44
:100210000534A7FB0530D8F8003064099B1A042B7D
:1002200009FB14544FEA900008D901F02DF83CB1B5
:100230002A460535EBE730BF30BFFCE730BFE6E7C5
:1002400000F006F9F4E700BF00000020D34D621073
:1002500000ED00E05417000824000020CDCCCCCCE9
:10026000704700BF234B1A6842F480321A601A6844
:100270009203FCD520481F4A016821F0070141F094
:1002800002010160016841F010010160596821F02C
:10029000F0015960596821F460515960596821F49E
:1002A000E06141F480615960596821F4003159607E
:1002B000596841F480315960596821F4701141F452
:1002C000E0115960196841F08071196013689B0151
:1002D000FCD55368074923F0030343F0020353603E
:1002E0004B6803F00C03082BFAD1044B044A1A6044
:1002F000704700BF001002400020024000000020B4
:1003000000A24A042DE9F0470F2602253F49404A42
:100310008B6943F01D038B6153683E4923F47003DE
:1003200043F40013536001F120070B790868072B91
:1003300088BF043003F0070302689B0006FA03F449
:1003400022EA040205FA03F308311343B9420360B9
:10035000EBD14FF080504FF00F094FF00808012704
:1003600000262D4B2D49D3F80028DFF8B4C022F029
:100370000F02C3F80028D3F800280CF1040522F07E
:10038000F002C3F80028D3F8042822F00F0242F04C
:100390000B02C3F80428D3F8042C22F4702242F490
:1003A0000022C3F8042C0861D3F804281D4822F069
:1003B000F00242F0B002C3F80428D3F8042822F473
:1003C000706242F48062C3F804280279D0F800E039
:1003D000072A94BF74460EF1040402F00703216853
:1003E0009B0009FA03FA21EA0A0108FA03F307FA63
:1003F00002F20B432360CEF810200CF8016B654528
:1004000000F10800E1D1BDE8F08700BF0010024014
:1004100000100140B819000800000140000C014024
:100420002800002098190008084A02EBC0031B7935
:1004300052F8302021B1012101FA03F31361704712
:100440000121103301FA03F313617047B819000852
:10045000024AD36883F40053D36070470010014010
:1004600001230C4A014652F830C002EBC002107959
:10047000DCF8082083401340B3FA83F252092BB909
:10048000054B585C5A5480F001007047024B002025
:100490005A54704798190008280000200122074B81
:1004A00053F830C003EBC0031979DCF808308A40F8
:1004B0001A420CBF01200020704700BF98190008A5
:1004C000024B9868C0F30030704700BF000C014039
:1004D00000204FF4F01C1F4982B08A691E4B42F481
:1004E00000728A614A6822F4404242F400424A6043
:1004F0005860C3F808C0D8629A6842F001029A6056
:100500000190019BB3F57A7F06DA019B01330193D9
:10051000019BB3F57A7FF8DB0F4A936843F0080339
:10052000936093681B07FCD493680B4943F0040362
:1005300093608B6813F00403FBD14A6842F02002F9
:100540004A604FF48021054A1160054A137002B0D9
:10055000704700BF001002400024014000E100E0AD
:100560002C000020074B084A19780848536B415C5F
:1005700023F01F030B435363936843F4800393609A
:10058000704700BF2C00002000240140D81900084B
:10059000104B1A68920700D4704700B50E49D86C0A
:1005A0000A78DFF838E0D2B22EF812000A78DFF8C5
:1005B00030C0013202F001020A700A781CF8021001
:1005C0005A6B22F01F020A435A639A6842F480026F
:1005D0009A6000BD002401402C0000203000002063
:1005E000D81900080B4A0C4B12880C48120422F050
:1005F0007F4101EB1261A3FB01C3A1EB030C03EBF1
:100600005C03DB0AC3EB0333C91A521AA2FB0002D4
:10061000704700BF3000002001011000FFEFFFFE17
:100620000B4A0C4B52880C48120422F07F4101EB1C
:100630001261A3FB01C3A1EB030C03EB5C03DB0A18
:10064000C3EB0333C91A521AA2FB0002704700BF62
:100650003000002001011000FFEFFFFE002140F6F6
:100660000F6C1A481A4B826942F4006282619962E7
:10067000C3F82CC059639A6922F0700242F06002FC
:100680009A619A6942F008029A611A6842F08002FF
:100690001A601A6A42F001021A625A6C22F470421D
:1006A00042F430425A64DA6842F08002DA604FF075
:1006B0008070084A10605A69074842F001025A6186
:1006C0001A6842F001021A6001707047001002407F
:1006D000002C014000E100E0340000204FF4616391
:1006E00040F60F6C80FB0302030C43EA02436345B0
:1006F00028BF634601494B63704700BF002C01408F
:10070000024A536C43F4004353647047002C014089
:100710000022024B18781A70704700BF3400002086
:10072000054B1A69120605D54FF67F700121034A61
:1007300018611170704700BF002C01403400002088
:1007400040F2712C42F20C000849094A8B6943F4CB
:1007500080438B61C2F808C0D0602022054B5A60EC
:1007600000230549054A0B801380704700100240A2
:100770000038014000E100E0380000203600002091
:100780000D4B1A68120616D50C480D4A01881288BE
:1007900089B292B291420AD002880A4992B28A5C26
:1007A000D2B25A6003880133DBB203807047DA6843
:1007B00022F08002DA6070470038014036000020E5
:1007C000380000203C00002030B50578DDB10E492E
:1007D000DFF838E00E4CDFF83CC00B88BEF8002094
:1007E0000133DBB292B2934209D00A8892B2A55487
:1007F0000B80DCF80C3043F08003CCF80C3010F8A0
:10080000015F002DE9D130BD380000203600002006
:100810003C0000200038014070B584B0002834D07E
:100820000DF1040C64460022234DA5FB0031C908DC
:1008300001EB8103A0EB430301343033092802F1BB
:10084000010204F8013C02D90A2A0846EDD11B48EE
:100850001B4C1C4DDFF870E0624403882188013393
:10086000DBB289B28B4202F1FF320AD001881678DE
:1008700089B26E540380DEF80C3043F08003CEF86A
:100880000C306245E9D104B070BD0C490C4A0B88AC
:1008900012880133DBB292B29342F4D030250A8839
:1008A000084C094892B2A5540B80C36843F08003FA
:1008B000C36004B070BD00BFCDCCCCCC38000020EC
:1008C000360000203C00002000380140031E01DB00
:1008D000FFF7A2BF0F481049028809880132D2B23F
:1008E00089B28A4213D04FF02D0C018800B5DFF891
:1008F0002CE089B20EF801C009490280CA685DF88F
:1009000004EB42F08002CA605842FFF785BF5842AC
:10091000DEE700BF38000020360000203C00002049
:1009200000380140002870B5274D284E38DB64237D
:1009300084B2001484FB0343FFF76EFF2B883288D8
:100940000133DBB292B293424FEA14440AD02E2014
:100950002A881F4992B288541E4A2B80D36843F0DC
:100960008003D360092C04DD2046BDE87040FFF70A
:1009700053BF2B8832880133DBB292B29342F3D05B
:1009800030202A88124992B28854124A2B80D368A8
:100990002046BDE8704043F08003D360FFF73CBFC2
:1009A0002B8832880133DBB292B293420AD02D24D5
:1009B0002A88074992B28C54064A2B80D36843F0A8
:1009C0008003D3604042B2E73800002036000020A8
:1009D0003C00002000380140164A1748138801885F
:1009E0000133DBB289B28B4200B50DD04FF00D0C54
:1009F0001188DFF848E089B20EF801C01049138071
:100A0000CB6843F08003CB60138801880133DBB2ED
:100A100089B28B420DD04FF00A0C1188DFF81CE030
:100A2000074889B20EF801C01380C36843F0800301
:100A3000C36000BD38000020360000203C000020CC
:100A400000380140704700BF10B58646DFF82CC063
:100A50000B4CBCE80F00CEF80000CEF80C30CEF8FE
:100A60000410CEF80820DCF80000DEF80030CEF8E4
:100A70001000181BB0FA80F0400910BD00FC0008FF
:100A80003250474D1F4B00B51A69120603D51E4957
:100A90001E4A59605A601B4AD368D907FCD41369AF
:100AA0001B4943F00203136151611369154943F077
:100AB00040031361CB68DB07FCD40A69C0F1006E08
:100AC00022F002020F4B0A6100F1120C811E0EF59A
:100AD0007C4E31F8020FDA68D207FCD41A6942F072
:100AE00001021A612EF80100DA68D207FCD41A69F3
:100AF000614522F001021A61EBD11A6942F08002CD
:100B00001A6100BD0020024023016745AB89EFCD8B
:100B100000FC00082DE9F849002148223E4800F079
:100B2000E0FD4CF6CC433C493C4A40F6CC4703251B
:100B30004A604FF440320B610B464FF0000C0A64E0
:100B40004F610D76364A3749DFF8DCB0C3E902124F
:100B500048220A24C3E90ABC4FF0000C40F6B83B17
:100B6000324E981800219846C3E90CBCDE6383F826
:100B7000454000F0B6FD4CF6CC43C8E916374FF4BB
:100B8000A023C8F888304FF480330027C8F85030CD
:100B90000523C8F88460264E0121C8E91C674FF47C
:100BA000FA66002788F86030224B4822C8F84C309B
:100BB000214B88F8481008F190000021C8E91E6711
:100BC00088F88D40C8F8543000F08BFD02211B4B93
:100BD0004EF26666C8F89430194B40F2AE7288F84F
:100BE000A85088F8D54000254FF47A6488F8901012
:100BF000C8F8983000214FF400331248C8E9304556
:100C0000C8E927061048C8F8A420C8E92E01C8F88A
:100C1000D030BDE8F88900BF4001002084170008EB
:100C2000333302006626010000093D0034F3FFFF64
:100C3000808D5B008C170008CCCC01009417000855
:100C4000CC0C010066660100C0C62D0002289DBFC5
:100C5000034B00EBC00003EBC0000020704700BF57
:100C600040010020012806D0022802D028B900F057
:100C700059B800F051B800F061B80020704700BFCB
:100C8000002330B4064A074C074D13600748084953
:100C9000084A2B70236003600B70137030BC7047E0
:100CA0002002002024020020190200201C02002043
:100CB0001A0200201802002000B58E46104A20EAD1
:100CC000E07012780F4B002A0CBF84464FF0000CE6
:100CD000BEF1000FA8BF70441A780B490B4B4010AF
:100CE000C1F800C018601AB100F5E630CC301860C9
:100CF000074B084AA3FB00304008106000BD00BF4E
:100D00001A020020190200202402002020020020E4
:100D1000ABAAAAAA1C020020014B1868704700BFAA
:100D200024020020034B1B7813B9034B186870474B
:100D3000002070471802002020020020014B186894
:100D4000704700BF1C02002000EBD07040107047BD
:100D5000014B1870704700BF1A020020014B187039
:100D6000704700BF19020020014B1870704700BF88
:100D700018020020002138B5074B084D084C4022CE
:100D80000848198099702970216000F0AAFC0021A0
:100D9000054B197038BD00BF74020020700200209E
:100DA0006C0200202C020020280200202DE9F04FC8
:100DB0004FF000089F4E8946934634468DB09E4BB7
:100DC000CDE900809D4F83F800802078FFF74AFF2F
:100DD000E36B984202DB236C984239DD94F844308F
:100DE000FF2B07D094F845200133DBB29A4284F8F8
:100DF000443030D8002408EBC80316F833A04FEA7B
:100E0000C80703ADE0B2FFF72DFF0134032C45F80E
:100E1000040FF7D1474406EBC707D7E90823CDE90C
:100E20000823874B5C460A9302238DF80DA0CDF86A
:100E300008908DF80C3002AD0FCD0FC40FCD0FC44C
:100E400095E8030084E8030001200DB0BDE8F08FB1
:100E5000002384F84430E26894F800C0904240F3E4
:100E6000AF8017F80C30FF2B00F08E800133DBB21F
:100E7000022B07F80C3000F28780A2686369D11852
:100E800088426DDD4FF0010384F838302169831A00
:100E9000D4E90A5A01FB0AF2C81723EAE37383FB79
:100EA000033E05FB0022A1FB05019B0C1144226AB5
:100EB00043EA8E339B184FEA1040626A40EA0140D1
:100EC00042EBAE420914834272EB010100992362A6
:100ED000A8BF41F0010162620091AB4272EB0A02CD
:100EE00080F28A8008F10108B8F1030F04F1480488
:100EF0007FF46BAFDDE9005A0220FFF7B3FE42F248
:100F000066639A4566DD40F2AD73984262DC4D4AF5
:100F100013680133272B13605FD9002403ADE0B2BF
:100F2000FFF7A0FE0134032C45F8040FF7D1002091
:100F3000002140F20323CDE90801434AADF80C300B
:100F40000A92CDF8089002AC0FCCABE80F000FCCA2
:100F5000ABE80F0094E803008BE80300012074E77E
:100F6000D31A984231DA002384F83830226A236B8E
:100F7000616BD31A626A236262EB0102002A626229
:100F800031DBD4E90A5AA8E70024674603ADE0B292
:100F9000FFF768FE0134032C45F8040FF7D108EB86
:100FA000C80806EBC808D8E90823CDE90823274B71
:100FB0005C460A938DF80D700123CDF8089038E750
:100FC00000231E4A02F80C3057E794F83830002B03
:100FD000CCD05BE700221B4B1A600020164B1D7023
:100FE0000DB0BDE8F08F0023D4E90A5A002000219B
:100FF0001A46C4E9080170E701230024144ACBF81B
:1010000000908BF805C0CBF820200BF104058BF87D
:101010000430E0B2FFF726FE0134032C45F8040F3C
:10102000F7D108EBC80806EBC806D6E90823CBE9D8
:10103000062393E740010020700200207402002084
:101040009C1700086C02002018180008C017000840
:10105000EC170008014B1878704700BF70020020A1
:1010600070B50446164600200E4B0F4D03F1400E9E
:101070001A787AB193F801C0A4450BD19A7800F19F
:10108000010C8A425FFA8CFC04D15A68B21AAA4257
:1010900098BF604608337345EAD1012894BF002009
:1010A000012070BD2C020020C0D4010010B5012425
:1010B000DFF828E0DFF828C09EF800300CF8334055
:1010C0000CEBC30C234403F007038CF801008CF8ED
:1010D0000210CCF804208EF8003010BD2802002049
:1010E0002C0200204DF804BD4FF0000C4FF0000B17
:1010F00000220B4B03F1D801C3E908BC83F8382068
:1011000083F8462083F8442048339942F4D1054BB4
:1011100005491A809A705DF804BB0A60704700BFE9
:1011200040010020740200206C020020002380E8AF
:101130000E00C3600374704710B5044682B00020EF
:101140000191FFF783FD8068FFF7FEFD019988425A
:10115000BABF01460123002320462160237102B05B
:1011600010BD00BF2DE9F0411A4C88B00646154667
:101170006171019198462071FFF772FF07462A4678
:1011800030460199FFF792FF07B308231248002267
:10119000124E3370124B1A60FFF716FB4046FFF7F2
:1011A00013FBFFF719FC0F4A0F4B116830782279B7
:1011B00002936379CDE9030102A8CDE90523FFF786
:1011C00061FC0A4B1D6008B0BDE8F08106230848A9
:1011D000DDE700BF8002002038180008B4020020BC
:1011E000A8020020B00200203250474D78020020B3
:1011F0006018000830B587B0FFF78CFCFFF740FDA2
:10120000FFF7B8FD40F63D2249F699111548FFF762
:101210008DFFFFF717FC00231348144D1449154A9E
:10122000154C036001A82B600B601360A380FFF7CF
:101230000BFC18B1029B9A1F032A04D901220F4B01
:101240001A7007B030BD03990C4A0D48296013701D
:10125000DDE9042322716371FFF7B6FAFFF7BCFBE7
:1012600007B030BDB8020020AC020020B002002060
:10127000A80200207802002080020020B402002092
:1012800068180008000000002DE9F04792B00646FB
:10129000FFF7A8F90546FFF7C3F981460120FFF7DC
:1012A000FDF8FFF755FD0220FFF7F8F8FFF756FDB0
:1012B0000320FFF7F3F8FFF757FD0020FFF7D0F802
:1012C00007460020FFF7C2FCB54C8068FFF73CFDE5
:1012D0002378072B0CD8DFE813F0CC0047011D0161
:1012E0003C01D300E6000800F600002F40F0B68174
:1012F000DFF8B0820DF1200A002529466846FFF785
:101300001BFF23785246043B012B8CBF0027009F14
:1013100031463846FFF74AFD0546FFF7F9F9002840
:1013200075D02378043B012B40F29B803846FFF7B1
:10133000D5F949463846FFF7BFFCD8F80030F31A14
:10134000C72B7AD8FFF786FE05462178002004399E
:1013500001298CBF00210121FFF766F82DB1257806
:10136000043D012D8CBF0025012529460120FFF7F2
:101370005BF823780220991F092B18BF012994BF1D
:1013800001210021FFF750F821780320A1F1080185
:10139000B1FA81F14909FFF747F8834B834A06FB0D
:1013A00003F3B2EBF30F2FD38148FFF70DFA30466A
:1013B000FFF732FA7F48FFF707FA2078FFF786FA3F
:1013C0007D48FFF701FA3846FFF7ACFA7B48FFF794
:1013D000FBF9FFF7A1FCFFF7A5FA7948FFF7F4F94D
:1013E000FFF7A0FCFFF79EFA7648FFF7EDF9FFF74D
:1013F000A5FCFFF797FAFFF72DFE00282FD07248C3
:10140000FFF7E2F9FFF7E8FA12B0BDE8F087FFF75F
:1014100057F8002885D1002D88D02378043B012B74
:1014200084D89DF82400022800F0F1803246109BF9
:101430009DF82510FFF796FE19E0644B02A8029371
:1014400023780393624B1B680493624B1A795B7990
:1014500005920693FFF716FBC8F8006072E75E4836
:10146000CEE73246002101205C4BFFF77BFE0027D0
:101470005CE70123DFF82C810DF1200A23703BE7A4
:10148000574B534A1D68126805F28F2595421D601F
:10149000C0F2AF801A6005231546DFF808810DF110
:1014A000200A237029E78542494B69DD1A68824288
:1014B00066DC032323704B4BDFF8E8801D600DF1E1
:1014C000200A154619E70025FFF70CFE444B40F6AD
:1014D0003D2249F6991144481D60FFF727FEFFF7AA
:1014E0000FF904223B4B3A49227009681A79DFF858
:1014F000B4805B7908A80B920C930A9126A3D3E9D8
:1015000000230DF1200ACDE90823FFF7BBFAC8F844
:101510000060F1E600F6CC40A842C0F2A78040F29D
:10152000AE739D427FF7E4AE294B1D6000252C4B26
:1015300040F63D2249F699112B481D60FFF7F6FD54
:10154000FFF7DEF80423DFF85C800DF1200A23703A
:10155000D2E6A0F6CC40A84250DD0223DFF844805A
:101560000DF1200A2370C7E62048FFF72DF9FFF799
:1015700033FA0223DFF82C800DF1200A2370BBE63A
:1015800040F2AE72954233DDDFF818801D600DF138
:10159000200AB2E6AFF300803250474D040000004D
:1015A000B402002078020020295C8FC214AE4701EB
:1015B00074190008781900088019000888190008B3
:1015C0009019000894190008C01800083250474DBF
:1015D000B0020020800200206019000838190008BD
:1015E000A8020020AC020020B8020020CC1800089D
:1015F0001D68DFF884800DF1200A7EE6002F3FF49D
:1016000077AE1E4A1E4B126800251A608FE7092329
:1016100055461C4F23700FCD0FC70FCD0FC795E850
:10162000030087E803001848FFF7CEF81098FFF78B
:10163000CBF8FFF7D1F9124B02A81B680493134BA8
:1016400002932378039317F81C3C059317F81B3C6F
:101650000693FFF717FAC8F8006008E707230C485D
:101660002370FFF7B1F8FFF7B7F941E6034B0948DC
:101670001D600323F4E700BF78020020AC020020C5
:10168000B002002080020020641900083250474D4B
:1016900018190008D4180008FEF7E2FD0B480C49A1
:1016A0000C4A002302E0D458C4500433C4188C42BE
:1016B000F9D3094A094C002301E013600432A24225
:1016C000FBD300F017F8FEF771FD70470000002013
:1016D00004000020E419000808000020CC020020CB
:1016E000FEE703460244934200D1704703F8011B12
:1016F000F9E7000070B500260C4C0D4B1D1BB6EB36
:10170000A50F09D1002600F019F80A4C0A4B1D1B41
:10171000B6EBA50F05D170BD54F8043B98470136D0
:10172000EDE754F8043B98470136F1E7DC1900086F
:10173000DC190008DC190008E0190008F8B500BF42
:10174000F8BC08BC9E467047F8B500BFF8BC08BCA2
:041750009E467047FA
:101754004D6F746F72477561726420626173656C5A
:10176400696E65207265616479202853544D333263
:1017740046313033202F20576F6B776929000000E2
:1017840043555252454E540054454D5000000000FC
:101794005350454544000000696D706C6175736970
:1017A400626C652072656164696E672C2073656E76
:1017B400736F722073757370656374006162736F05
:1017C4006C757465206C696D6974206578636565F2
:1017D4006465642028736F66747761726520626142
:1017E400636B73746F702900493274206365696C8C
:1017F400696E672065786365656465642028737520
:10180400737461696E6564206F7665726C6F616470
:1018140029000000636F6D6D616E64656420746FF0
:101824002072756E2C206E6F74207475726E696EE2
:10183400670000004C4F434B4F55543A207265707B
:101844006561746564206661756C742C20657363CE
:10185400616C61746564202D200000004641554C84
:10186400543A2000424F4F543A206C6173742073F1
:101874006176656420737461746520776173207583
:101884006E73616665202D2073746179696E6720BB
:101894006C6174636865642C206120706F77657275
:1018A400206379636C65206973206E6F7420616EA8
:1018B40020617070726F76616C0000002050524598
:1018C400414C41524D000000504F5354204F4B00A7
:1018D400736574706F696E74207265717565737465
:1018E40065642061626F766520636F6E74696E75DE
:1018F4006F75732D73616665206C696D6974202D35
:10190400206177616974696E6720617070726F76A7
:10191400616C00007265636F766572792061707026
:10192400726F766564202D2072652D61726D696E0B
:1019340067000000686172647761726520424B49F8
:101944004E20747269702028636F6D7061726174C7
:101954006F722F6261636B73746F702900000000F3
:1019640053454E534F52204641554C543A200000A3
:10197400743D00002073746174653D0020647574C7
:10198400793D00002073706565643D0020493D0089
:1019940020543D00000C014005000000000C0140F3
:1019A40006000000000C014007000000000C01408C
:1019B40008000000000C01400D000000000C014074
:1019C4000E000000000C01400F0000000008014060
:0819D400040000000001000006
:0419DC007901000885
:0419E00051010008A9
:0419E40000127A0073
:040000050800169940
:00000001FF
